{
  "contractName": "ECTools",
  "abi": [
    {
      "constant": true,
      "inputs": [
        {
          "name": "_hashedMsg",
          "type": "bytes32"
        },
        {
          "name": "_sig",
          "type": "string"
        }
      ],
      "name": "recoverSigner",
      "outputs": [
        {
          "name": "",
          "type": "address"
        }
      ],
      "payable": false,
      "stateMutability": "pure",
      "type": "function"
    },
    {
      "constant": true,
      "inputs": [
        {
          "name": "_hashedMsg",
          "type": "bytes32"
        },
        {
          "name": "_sig",
          "type": "string"
        },
        {
          "name": "_addr",
          "type": "address"
        }
      ],
      "name": "isSignedBy",
      "outputs": [
        {
          "name": "",
          "type": "bool"
        }
      ],
      "payable": false,
      "stateMutability": "pure",
      "type": "function"
    },
    {
      "constant": true,
      "inputs": [
        {
          "name": "_hexstr",
          "type": "string"
        }
      ],
      "name": "hexstrToBytes",
      "outputs": [
        {
          "name": "",
          "type": "bytes"
        }
      ],
      "payable": false,
      "stateMutability": "pure",
      "type": "function"
    },
    {
      "constant": true,
      "inputs": [
        {
          "name": "_char",
          "type": "string"
        }
      ],
      "name": "parseInt16Char",
      "outputs": [
        {
          "name": "",
          "type": "uint256"
        }
      ],
      "payable": false,
      "stateMutability": "pure",
      "type": "function"
    },
    {
      "constant": true,
      "inputs": [
        {
          "name": "_uint",
          "type": "uint256"
        }
      ],
      "name": "uintToBytes32",
      "outputs": [
        {
          "name": "b",
          "type": "bytes"
        }
      ],
      "payable": false,
      "stateMutability": "pure",
      "type": "function"
    },
    {
      "constant": true,
      "inputs": [
        {
          "name": "_msg",
          "type": "string"
        }
      ],
      "name": "toEthereumSignedMessage",
      "outputs": [
        {
          "name": "",
          "type": "bytes32"
        }
      ],
      "payable": false,
      "stateMutability": "pure",
      "type": "function"
    },
    {
      "constant": true,
      "inputs": [
        {
          "name": "_uint",
          "type": "uint256"
        }
      ],
      "name": "uintToString",
      "outputs": [
        {
          "name": "str",
          "type": "string"
        }
      ],
      "payable": false,
      "stateMutability": "pure",
      "type": "function"
    },
    {
      "constant": true,
      "inputs": [
        {
          "name": "_str",
          "type": "string"
        },
        {
          "name": "_startIndex",
          "type": "uint256"
        },
        {
          "name": "_endIndex",
          "type": "uint256"
        }
      ],
      "name": "substring",
      "outputs": [
        {
          "name": "",
          "type": "string"
        }
      ],
      "payable": false,
      "stateMutability": "pure",
      "type": "function"
    }
  ],
  "bytecode": "0x61129c610030600b82828239805160001a6073146000811461002057610022565bfe5b5030600052607381538281f30073000000000000000000000000000000000000000030146080604052600436106100a5576000357c0100000000000000000000000000000000000000000000000000000000900463ffffffff1680631052506f146100aa5780631445f7131461014c5780631dcd9b551461022157806338b025b21461030a578063886d3db91461037a578063dae2145414610413578063dca954191461048b578063e939567914610535575b600080fd5b6101326004803603810190808035600019169060200190929190803590602001908201803590602001908080601f0160208091040260200160405190810160405280939291908181526020018383808284378201915050505050509192919290803573ffffffffffffffffffffffffffffffffffffffff1690602001909291905050506105ce565b604051808215151515815260200191505060405180910390f35b6101a6600480360381019080803590602001908201803590602001908080601f0160208091040260200160405190810160405280939291908181526020018383808284378201915050505050509192919290505050610636565b6040518080602001828103825283818151815260200191508051906020019080838360005b838110156101e65780820151818401526020810190506101cb565b50505050905090810190601f1680156102135780820380516001836020036101000a031916815260200191505b509250505060405180910390f35b61028f600480360381019080803590602001908201803590602001908080601f016020809104026020016040519081016040528093929190818152602001838380828437820191505050505050919291929080359060200190929190803590602001909291905050506107b1565b6040518080602001828103825283818151815260200191508051906020019080838360005b838110156102cf5780820151818401526020810190506102b4565b50505050905090810190601f1680156102fc5780820380516001836020036101000a031916815260200191505b509250505060405180910390f35b610364600480360381019080803590602001908201803590602001908080601f01602080910402602001604051908101604052809392919081815260200183838082843782019150505050505091929192905050506108e1565b6040518082815260200191505060405180910390f35b61039860048036038101908080359060200190929190505050610e7b565b6040518080602001828103825283818151815260200191508051906020019080838360005b838110156103d85780820151818401526020810190506103bd565b50505050905090810190601f1680156104055780820380516001836020036101000a031916815260200191505b509250505060405180910390f35b61046d600480360381019080803590602001908201803590602001908080601f0160208091040260200160405190810160405280939291908181526020018383808284378201915050505050509192919290505050610ebf565b60405180826000191660001916815260200191505060405180910390f35b6104f36004803603810190808035600019169060200190929190803590602001908201803590602001908080601f016020809104026020016040519081016040528093929190818152602001838380828437820191505050505050919291929050505061102d565b604051808273ffffffffffffffffffffffffffffffffffffffff1673ffffffffffffffffffffffffffffffffffffffff16815260200191505060405180910390f35b61055360048036038101908080359060200190929190505050611153565b6040518080602001828103825283818151815260200191508051906020019080838360005b83811015610593578082015181840152602081019050610578565b50505050905090810190601f1680156105c05780820380516001836020036101000a031916815260200191505b509250505060405180910390f35b6000808273ffffffffffffffffffffffffffffffffffffffff16141515156105f557600080fd5b6105ff848461102d565b73ffffffffffffffffffffffffffffffffffffffff168273ffffffffffffffffffffffffffffffffffffffff161490509392505050565b606060006060600060608060008088519650600060028881151561065657fe5b0614151561066357600080fd5b60028781151561066f57fe5b046040519080825280601f01601f1916602001820160405280156106a25781602001602082028038833980820191505090505b50955060009450600091505b868210156107a2576106c48983600185016107b1565b93506106d78960018401600285016107b1565b92506106e2836108e1565b60106106ed866108e1565b020190506106fa81610e7b565b601f81518110151561070857fe5b9060200101517f010000000000000000000000000000000000000000000000000000000000000090047f010000000000000000000000000000000000000000000000000000000000000002868680600101975081518110151561076757fe5b9060200101907effffffffffffffffffffffffffffffffffffffffffffffffffffffffffffff1916908160001a9053506002820191506106ae565b85975050505050505050919050565b606080606060008692508486111515156107ca57600080fd5b600086101515156107da57600080fd5b825185111515156107ea57600080fd5b8585036040519080825280601f01601f19166020018201604052801561081f5781602001602082028038833980820191505090505b5091508590505b848110156108d457828181518110151561083c57fe5b9060200101517f010000000000000000000000000000000000000000000000000000000000000090047f0100000000000000000000000000000000000000000000000000000000000000028287830381518110151561089757fe5b9060200101907effffffffffffffffffffffffffffffffffffffffffffffffffffffffffffff1916908160001a9053508080600101915050610826565b8193505050509392505050565b6000606082905060307f01000000000000000000000000000000000000000000000000000000000000000281600081518110151561091b57fe5b9060200101517f010000000000000000000000000000000000000000000000000000000000000090047f0100000000000000000000000000000000000000000000000000000000000000027effffffffffffffffffffffffffffffffffffffffffffffffffffffffffffff191610158015610a34575060397f0100000000000000000000000000000000000000000000000000000000000000028160008151811015156109c457fe5b9060200101517f010000000000000000000000000000000000000000000000000000000000000090047f0100000000000000000000000000000000000000000000000000000000000000027effffffffffffffffffffffffffffffffffffffffffffffffffffffffffffff191611155b15610ac0576030816000815181101515610a4a57fe5b9060200101517f010000000000000000000000000000000000000000000000000000000000000090047f0100000000000000000000000000000000000000000000000000000000000000027f01000000000000000000000000000000000000000000000000000000000000009004039150610e75565b60417f010000000000000000000000000000000000000000000000000000000000000002816000815181101515610af357fe5b9060200101517f010000000000000000000000000000000000000000000000000000000000000090047f0100000000000000000000000000000000000000000000000000000000000000027effffffffffffffffffffffffffffffffffffffffffffffffffffffffffffff191610158015610c0c575060467f010000000000000000000000000000000000000000000000000000000000000002816000815181101515610b9c57fe5b9060200101517f010000000000000000000000000000000000000000000000000000000000000090047f0100000000000000000000000000000000000000000000000000000000000000027effffffffffffffffffffffffffffffffffffffffffffffffffffffffffffff191611155b15610c98576037816000815181101515610c2257fe5b9060200101517f010000000000000000000000000000000000000000000000000000000000000090047f0100000000000000000000000000000000000000000000000000000000000000027f01000000000000000000000000000000000000000000000000000000000000009004039150610e75565b60617f010000000000000000000000000000000000000000000000000000000000000002816000815181101515610ccb57fe5b9060200101517f010000000000000000000000000000000000000000000000000000000000000090047f0100000000000000000000000000000000000000000000000000000000000000027effffffffffffffffffffffffffffffffffffffffffffffffffffffffffffff191610158015610de4575060667f010000000000000000000000000000000000000000000000000000000000000002816000815181101515610d7457fe5b9060200101517f010000000000000000000000000000000000000000000000000000000000000090047f0100000000000000000000000000000000000000000000000000000000000000027effffffffffffffffffffffffffffffffffffffffffffffffffffffffffffff191611155b15610e70576057816000815181101515610dfa57fe5b9060200101517f010000000000000000000000000000000000000000000000000000000000000090047f0100000000000000000000000000000000000000000000000000000000000000027f01000000000000000000000000000000000000000000000000000000000000009004039150610e75565b600080fd5b50919050565b606060206040519080825280601f01601f191660200182016040528015610eb15781602001602082028038833980820191505090505b509050816020820152919050565b600080606083519150600082111515610ed757600080fd5b6040805190810160405280601a81526020017f19457468657265756d205369676e6564204d6573736167653a0a000000000000815250905080610f1983611153565b856040518084805190602001908083835b602083101515610f4f5780518252602082019150602081019050602083039250610f2a565b6001836020036101000a03801982511681845116808217855250505050505090500183805190602001908083835b602083101515610fa25780518252602082019150602081019050602083039250610f7d565b6001836020036101000a03801982511681845116808217855250505050505090500182805190602001908083835b602083101515610ff55780518252602082019150602081019050602083039250610fd0565b6001836020036101000a0380198251168184511680821785525050505050509050019350505050604051809103902092505050919050565b6000806000806060600060010287600019161415151561104c57600080fd5b608486511415156110605760009450611149565b61107561107087600260846107b1565b610636565b90506020810151935060408101519250606081015160001a9150601b8260ff1610156110a257601b820191505b601b8260ff1610806110b75750601c8260ff16115b156110c55760009450611149565b600187838686604051600081526020016040526040518085600019166000191681526020018460ff1660ff1681526020018360001916600019168152602001826000191660001916815260200194505050505060206040516020810390808403906000865af115801561113c573d6000803e3d6000fd5b5050506020604051035194505b5050505092915050565b60606000806060600080600094506000870193505b60008414151561118e578480600101955050600a8481151561118657fe5b049350611168565b846040519080825280601f01601f1916602001820160405280156111c15781602001602082028038833980820191505090505b5092506001850391505b60008714151561126357600a878115156111e157fe5b069050600a878115156111f057fe5b049650806030017f01000000000000000000000000000000000000000000000000000000000000000283838060019003945081518110151561122e57fe5b9060200101907effffffffffffffffffffffffffffffffffffffffffffffffffffffffffffff1916908160001a9053506111cb565b82955050505050509190505600a165627a7a72305820bcc7efef3ddf81f2a469925b5ec041ffb678adcd62ff50cd208ee5fbedc412620029",
  "source": "pragma solidity ^0.4.18;\n\n\nlibrary ECTools {\n\n    // @dev Recovers the address which has signed a message\n    // @thanks https://gist.github.com/axic/5b33912c6f61ae6fd96d6c4a47afde6d\n    function recoverSigner(bytes32 _hashedMsg, string _sig) public pure returns (address) {\n        require(_hashedMsg != 0x00);\n\n        // need this for test RPC\n        // bytes memory prefix = \"\\x19Ethereum Signed Message:\\n32\";\n        // bytes32 prefixedHash = keccak256(prefix, _hashedMsg);\n\n        if (bytes(_sig).length != 132) {\n            return 0x0;\n        }\n        bytes32 r;\n        bytes32 s;\n        uint8 v;\n        bytes memory sig = hexstrToBytes(substring(_sig, 2, 132));\n        assembly {\n            r := mload(add(sig, 32))\n            s := mload(add(sig, 64))\n            v := byte(0, mload(add(sig, 96)))\n        }\n        if (v < 27) {\n            v += 27;\n        }\n        if (v < 27 || v > 28) {\n            return 0x0;\n        }\n        return ecrecover(_hashedMsg, v, r, s);\n    }\n\n    // @dev Verifies if the message is signed by an address\n    function isSignedBy(bytes32 _hashedMsg, string _sig, address _addr) public pure returns (bool) {\n        require(_addr != 0x0);\n\n        return _addr == recoverSigner(_hashedMsg, _sig);\n    }\n\n    // @dev Converts an hexstring to bytes\n    function hexstrToBytes(string _hexstr) public pure returns (bytes) {\n        uint len = bytes(_hexstr).length;\n        require(len % 2 == 0);\n\n        bytes memory bstr = bytes(new string(len / 2));\n        uint k = 0;\n        string memory s;\n        string memory r;\n        for (uint i = 0; i < len; i += 2) {\n            s = substring(_hexstr, i, i + 1);\n            r = substring(_hexstr, i + 1, i + 2);\n            uint p = parseInt16Char(s) * 16 + parseInt16Char(r);\n            bstr[k++] = uintToBytes32(p)[31];\n        }\n        return bstr;\n    }\n\n    // @dev Parses a hexchar, like 'a', and returns its hex value, in this case 10\n    function parseInt16Char(string _char) public pure returns (uint) {\n        bytes memory bresult = bytes(_char);\n        // bool decimals = false;\n        if ((bresult[0] >= 48) && (bresult[0] <= 57)) {\n            return uint(bresult[0]) - 48;\n        } else if ((bresult[0] >= 65) && (bresult[0] <= 70)) {\n            return uint(bresult[0]) - 55;\n        } else if ((bresult[0] >= 97) && (bresult[0] <= 102)) {\n            return uint(bresult[0]) - 87;\n        } else {\n            revert();\n        }\n    }\n\n    // @dev Converts a uint to a bytes32\n    // @thanks https://ethereum.stackexchange.com/questions/4170/how-to-convert-a-uint-to-bytes-in-solidity\n    function uintToBytes32(uint _uint) public pure returns (bytes b) {\n        b = new bytes(32);\n        assembly {mstore(add(b, 32), _uint)}\n    }\n\n    // @dev Hashes the signed message\n    // @ref https://github.com/ethereum/go-ethereum/issues/3731#issuecomment-293866868\n    function toEthereumSignedMessage(string _msg) public pure returns (bytes32) {\n        uint len = bytes(_msg).length;\n        require(len > 0);\n        bytes memory prefix = \"\\x19Ethereum Signed Message:\\n\";\n        return keccak256(prefix, uintToString(len), _msg);\n    }\n\n    // @dev Converts a uint in a string\n    function uintToString(uint _uint) public pure returns (string str) {\n        uint len = 0;\n        uint m = _uint + 0;\n        while (m != 0) {\n            len++;\n            m /= 10;\n        }\n        bytes memory b = new bytes(len);\n        uint i = len - 1;\n        while (_uint != 0) {\n            uint remainder = _uint % 10;\n            _uint = _uint / 10;\n            b[i--] = byte(48 + remainder);\n        }\n        str = string(b);\n    }\n\n\n    // @dev extract a substring\n    // @thanks https://ethereum.stackexchange.com/questions/31457/substring-in-solidity\n    function substring(string _str, uint _startIndex, uint _endIndex) public pure returns (string) {\n        bytes memory strBytes = bytes(_str);\n        require(_startIndex <= _endIndex);\n        require(_startIndex >= 0);\n        require(_endIndex <= strBytes.length);\n\n        bytes memory result = new bytes(_endIndex - _startIndex);\n        for (uint i = _startIndex; i < _endIndex; i++) {\n            result[i - _startIndex] = strBytes[i];\n        }\n        return string(result);\n    }\n}",
  "sourcePath": "/Users/rahul/Desktop/connext/ethcalate-bidirectional-erc20-single/contracts/ECTools.sol",
  "compiler": {
    "name": "solc",
    "version": "0.4.23+commit.124ca40d.Emscripten.clang"
  },
  "schemaVersion": "2.0.0",
  "updatedAt": "2018-05-02T23:48:19.545Z"
}